:1000000000000420211C0000491C00004B1C0000C3
:100010004D1C00004F1C0000511C0000000000009F
:10002000000000000000000000000000531C000061
:10003000551C000000000000571C0000591C000067
:10004000F5320000E12A0000FD8D00005B1C00007D
:100050005B1C00005B1C0000013000005B1C00000A
:10006000D96400005B1C00005B1C00000134000030
:100070005B1C0000053300005B1C00005B1C0000E3
:10008000B13400005B1C00005B1C00005B1C000026
:100090005B1C00005B1C00005B1C00005B1C000084
:1000A0005B1C00005B1C00005B1C00005B1C000074
:1000B0005B1C00005B1C0000000000000000000052
:1000C0005B1C00005B1C00005B1C00005B1C000054
:1000D0005B1C00005B1C00005B1C00005B1C000044
:1000E0005B1C00005B1C00005B1C000000000000AB
:1000F000000000005B1C0000000000005B1C000012
:1001000000000000000000000000000000000000EF
:1001100000000000000000000000000000000000DF
:1001200000000000000000000000000000000000CF
:1001300000000000000000000000000000000000BF
:1001400000000000000000000000000000000000AF
:10015000000000000000000000000000000000009F
:10016000000000000000000000000000000000008F
:10017000000000000000000000000000000000007F
:10018000000000000000000000000000000000006F
:10019000000000000000000000000000000000005F
:1001A000000000000000000000000000000000004F
:1001B000000000000000000000000000000000003F
:1001C000000000000000000000000000000000002F
:1001D000000000000000000000000000000000001F
:1001E000000000000000000000000000000000000F
:1001F00000000000000000000000000000000000FF
:1002000090F800F06DE9024520F007016FF0000C56
:1002100010F0070491F820F040F049804FF00004FE
:100220006FF00700D1E9002391F840F000F10800D9
:1002300082FA4CF2A4FA8CF283FA4CF3A2FA8CF311
:100240004BBBD1E9022382FA4CF200F10800A4FA78
:100250008CF283FA4CF3A2FA8CF3E3B9D1E90423CC
:1002600082FA4CF200F10800A4FA8CF283FA4CF303
:10027000A2FA8CF37BB9D1E9062301F1200182FABD
:100280004CF200F10800A4FA8CF283FA4CF3A2FAC3
:100290008CF3002BC6D0002A04BF04301A4612BAD1
:1002A000B2FA82F2FDE8024500EBD2007047D1E9D4
:1002B000002304F00305C4F100004FEAC50514F063
:1002C000040F91F840F00CFA05F562EA05021CBF34
:1002D00063EA050362464FF00004A9E7000000004E
:1002E00001F0FF01102A2BDB10F0070F08D010F8E7
:1002F000013B013A8B422DD010F0070F42B3F6D1EB
:10030000F0B441EA012141EA014122F007047FF003
:1003100000070023F0E80256083C85EA010586EA5A
:10032000010685FA47F5A3FA87F586FA47F6A5FA96
:1003300087F68EB9EED1F0BC01F0FF0102F00702A2
:1003400032B110F8013B013A83EA010313B1F8D14D
:100350000020704701387047002D06BF354603382E
:10036000073815F0010F07D1013015F4807F02BF67
:10037000013015F4C03F0130F0BC0138704700BFB8
:1003800038B5124B1D68AA6B04461AB10023C2E9A6
:10039000044338BD18200AF06FFE0246A86378B106
:1003A00001200021C2E90401094B0A480A49916071
:1003B000C2E900030B2393810023C2E9044338BD43
:1003C000064B074842210AF00FFE00BF140300202D
:1003D00034126DE60E33CDABECDE0500FCD0000030
:1003E00014D100001C4B10B51C68A26B8AB11369B4
:1003F0001A4954691A4803FB01F100FB0411A3FBDD
:100400000030013341EB0001C2E9043121F000402A
:1004100010BD18200AF030FE0246A06388B1114CCE
:10042000114B0E48114991609FED097BC2E90043D1
:100430000B2393810E4B014682ED047BC2E904310C
:1004400010BD0C4B0C484E210AF0CEFDAFF30080DE
:100450000100000000000000140300202DF451589A
:100460002D7F954C0E33CDAB34126DE6ECDE0500DE
:100470002E7F954CFCD0000014D100000348044BA3
:10048000834202D0034B03B1184770478403002016
:100490008403002000000000054806490B1AD90F0C
:1004A00001EBA301491002D0034B03B11847704779
:1004B00084030020840300200000000010B5064CD7
:1004C000237843B9FFF7DAFF044B13B10448AFF3C5
:1004D00000800123237010BD840300200000000071
:1004E000FCD1000008B5044B1BB104490448AFF32C
:1004F0000080BDE80840CFE700000000880300202E
:10050000FCD10000A3F5803A704700BF154B002BCB
:1005100008BF114B9D46FFF7F5FF00218B460F46A4
:100520001148124A121A0AF053FC0C4B002B00D04F
:1005300098470B4B002B00D0984700200021040067
:100540000D000B480AF0A8FA0AF0D6FA200029009C
:1005500000F0B6FA0AF0A6FA000008000000000059
:100560000000000000000420840300205027002029
:10057000CDAA000010B50388044633B1102B0ED16C
:100580000A4BDB687BB1012010BD00F057F807482B
:10059000802100F0F7FF10232380012010BD0023ED
:1005A0000380032010BD00F089F8F0E7A0030020CD
:1005B00000B585B00346002101AA44F20100CDE94F
:1005C0000111039300F004F805B05DF804FB00BFCF
:1005D00072B6094BD3F8F030DB0700D500BEBFF38D
:1005E0004F8F0549054BCA6802F4E0621343CB60A4
:1005F000BFF34F8F00BFFDE700ED00E00400FA05F8
:1006000072B6024A1368013313607047B0030020CA
:10061000034A1368013B136003B962B6704700BF19
:10062000B003002010B50446006830B1002103F08B
:100630006BFA54F8040F0028F8D110BD4FF0804237
:10064000012370B41360D2F80031002BFBD0164B9D
:10065000164C0021C2F80011032501208E22C3F898
:100660000C15C3F81055C3F81C45C3F82425C3F86E
:100670002C15C3F83005C3F834550D4DC3F83C555F
:1006800040F25B660B4DC3F83865C3F81405C3F838
:100690001855C3F82425C3F81C45C3F82C1570BCA5
:1006A000054803F021BB00BF0010004000D6BE8902
:1006B000555555002503000214CC000010B5154C0B
:1006C000204600F02FF80146134803F053F9134A6F
:1006D0000221C2F804450023C2F808152520012193
:1006E000C2F85405C2F80031C2F80C311160D2F8DA
:1006F0000031002BFBD0012308499360D1F80C3165
:10070000002BFBD001230B61BDE81040044803F02F
:10071000EBBA00BFB40300202CCC00000010004056
:1007200048CC000000B5144A034692E8030083B0A9
:10073000124AADF80410C3F8020003CAC3F80D0052
:100740000F2058700120BDF804C0587206200922FD
:100750004FF0420EA3F806C098724FF0020C15201D
:1007600083F800E083F808C0DA721A73C3F8111036
:1007700003B05DF804FB00BF64CC000058CC00005F
:100780002DE9F043038883B0044643B1B3F5867F77
:100790000CD1822910D0012003B0BDE8F0834FF4C2
:1007A00086730120238003B0BDE8F083002303801B
:1007B000032003B0BDE8F08301F0E4FABFF35F8FDC
:1007C00019491A4B0E6800220A601F781A70FFB28E
:1007D000BFF35F8F164D01F0D9FA28680028DED0EC
:1007E000DFF85090DFF8508003E055F8040F002840
:1007F000D5D090F84A3026FA03F3DA07F5D590F809
:10080000493047FA03F3DB07EFD500F0D1FD0028AC
:10081000EBD02B68D9F800200092184642460221FE
:1008200000F064FDE1E700BFEC0300203127002069
:1008300050010020B80B0020B508000010B50D4A8B
:1008400090F84B3082B004460133106884F84B3086
:10085000094A0090234604F12000802100F046FD63
:10086000064B19782246002002B0BDE8104003F084
:10087000F9B900BFB80B00203D0800002E2700206A
:1008800010B4094A094C13681943116021780122F8
:1008900002FA00F040EA0103DBB2237004485DF87D
:1008A000044B03F011BA00BFEC03002031270020F5
:1008B0006401002070B582B0044600F079FD08B9EB
:1008C00002B070BD04F12006304600F071FD94F8CE
:1008D0004A10054694F8490001F016FA48B994F810
:1008E000483063B9002DEBD1304600F047FD0F4B87
:1008F00014E00128F6D194F84830002BF2D1002DF5
:10090000DED00B4B0B4A1B68002584F84B50304659
:1009100000937E21234600F0E9FC074B197822461C
:10092000284602B0BDE8704003F09CB93027002093
:10093000B80B00203D0800002F270020F8B503F079
:10094000D9F8304B304C187003F0D4F82F4B304F9F
:10095000187003F0CFF82F4A2F4B107022687B607D
:100960000025FF213972FD60002A42D02B4E09E09C
:1009700091F84A00F9683A72834054F8042F0B4307
:10098000FB60B2B392F84A3092F84910526C03F00F
:100990001F0343EA41131F2BC6BF03F01F03314659
:1009A0004FF0A04103F5E07342F08C0241F8235070
:1009B000236893F84A1093F8490001F061F922681E
:1009C00092F84A3092F8490003F01F0343EA4010BE
:1009D000012102F06BFA2168387A91F849208242AD
:1009E0004FF00103C4D0FF28C2D054F8042F002ACE
:1009F000C8D10B48002103F087F8BDE8F84004484F
:100A000001F096B92F270020500100203027002048
:100A1000DC0300202E270020810800000003005086
:100A200064010020042800D0704708B5054A136807
:100A30000133136000F0BAFD00B908BDBDE80840FD
:100A400000F09ABDF003002000B5134B83B00022E4
:100A50001A6002F0A3F8C0B9002002F0BBF80F4BF7
:100A60000F4A93E803000090ADF804100D48694662
:100A700002F05CFC60B901210A4802F0ABFC0948B5
:100A800002F09CFC03B05DF804FBFFF791FDE3E787
:100A9000FFF78EFDEFE700BFF0030020BCCC0000A5
:100AA000250A0000C4CC0000014B1868704700BF45
:100AB000F0030020014B1868C0097047F0030020C4
:100AC0002DE9F04102F004FFFFF7BEFF05F0CAFC7C
:100AD00003F04CF800216448644FDFF8E481644D72
:100AE000644E654C03F010F800F0F6FB09F098FF37
:100AF00007F082F902F0F4FE03F004F95F4B1B6883
:100B000098477B689847D8F804309847AA79EB79DA
:100B100003EB022333802368022B36DC584B296811
:100B20006A6819605A605748002102F0EDFF4FF0E3
:100B3000FF3008F0EDFB2368022B054610DC02F0C5
:100B4000F7FE5148FFF76EFD09F092FF03F014F82D
:100B5000044609F095FF002CF8D102F0EFFEF5E70E
:100B60004A4A4B494B4802F005FF4B4802F002FF4E
:100B70002368022BE3DD284601F012FB2368022BD9
:100B8000DDDD0A2003F0AEF8D9E7404A404941488C
:100B900002F0F0FE414803F0A7F82368022BBDDD08
:100BA0003A4A3B493B4802F0E5FE3D4B3D48196857
:100BB00002F0E0FE2368022BB0DD344A34493548A8
:100BC00002F0D8FED8F80010374802F0D3FE2368B0
:100BD000022BA3DD2D4A2E492E4802F0CBFE3968A8
:100BE000324802F0C7FE2368022B97DD274A2849C6
:100BF000284802F0BFFE2E484AF6CD3102F0BAFE78
:100C00002368022B8ADD214A2149224802F0B2FEE4
:100C100028481A2102F0AEFE2368022B7FF77EAF30
:100C20001A4A1B491B4802F0A5FE3188224802F0EF
:100C3000A1FE2368022B7FF771AF144A14491548AF
:100C400002F098FE1D4802F095FE2368022B7FF704
:100C500065AF284601F0B4FA2368022B7FF75EAF38
:100C60000A2003F03FF859E7A8010020DCCD00007E
:100C70002C0600201C270020C80100205CCE0000AC
:100C800050250020B80200200CCC0000CCCC000085
:100C9000D4CC0000DCCC0000B0CD0000ECCC0000D7
:100CA00058CF000024CD000034CD000040CD00001E
:100CB0004CCD000068CD000088CD000098CD00002C
:100CC000D8CF00002DE9F0430D468B6892F82C90A8
:100CD00083B00646506BD3E90078144601F02EFA33
:100CE000686803F04BF8A9681C4801F02DFB1C480C
:100CF000294601F029FB636B1B6813B30023A3850E
:100D000003F06AF8174BA3FB0023C11A03EB51034E
:100D10009B08C3EBC303C11A134B144A1B6800930F
:100D200004F10C00234600F0E1FA3FB14A46314697
:100D300040463B4603B0BDE8F043184703B0BDE86A
:100D4000F08304F10C0000F019FB2146084801F083
:100D5000F5F92146074801F0F7FAE6E774010020AB
:100D60008C01002025499224B80B0020790D000049
:100D70005C0400208001002018B32DE9F047436B8C
:100D80001D6886B00446CDB1686803F00DF87C4953
:100D90000C2002F085FD0121072002F075FD794B42
:100DA0005B68984700280DDAAB683BB10520224606
:100DB000294606B0BDE8F047FFF784BF06B0BDE89E
:100DC000F087704702F002FD6F4F90F802807B6859
:100DD000039302F0FBFC064602F002FD039B014672
:100DE0003046984702F06CFDBB690393064698476E
:100DF00000282DD1002E64D1D7F81C90C84738BBED
:100E0000BB681E4602F0ECFCB04700286ED00228FA
:100E10001ED0AB68002BD1D00420C8E705F054FBEE
:100E20006FF028031E1A03E005F04EFBC64202D500
:100E3000C8470028F8D0C847002872D03B69032172
:100E400005A89847032803D19DF8163043453ED0A6
:100E5000AA68002AB2D094F82D104B1CDBB2052BE7
:100E600084F82D301DD8127A94F82C00904224D2A8
:100E7000012B88BF1F267CD902F0AEFF434AB0FB8E
:100E8000F6F112680092424A01FB1601234604F172
:100E90000C0000F02BFA686806B0BDE8F04702F0DD
:100EA00067BF94F82C300133DBB2002184F82D1099
:100EB00084F82C30127A9A4216D82246294601200C
:100EC00077E7BE6802F08CFCB04700289FD1AB6882
:100ED000002B3FF473AF94F82C300020013384F8DA
:100EE0002D0084F82C3062E70726C5E705F0ECFA00
:100EF0006FF0180AAAEB000A04E005F0E5FA1AEB15
:100F0000000F02D5C8470028F7D0039B9847002858
:100F100084D1C847002881D17B69984700283FF4D5
:100F20007DAFA96800293FF449AF94F82C30013314
:100F30000022DBB284F82D2084F82C300A7A9A4201
:100F400003D822462946022033E702F045FF114B21
:100F5000A3FB0023C21A03EB52030C4A9B0812683E
:100F60000092C3EBC303C11A094A04F10C002346E3
:100F70008FE70B1D0126DBB206FA03F35E1E7BE74B
:100F80002C06002014CE00005CCE0000B80B002020
:100F9000790D0000254992242DE9F041064682B0E2
:100FA0000D200F4602F084FC054601F03BF90121BB
:100FB0000B2002F069FC454B1C6814B916E024684C
:100FC000A4B1201D294601F065F80028F7D0606B18
:100FD00001F0CEF807281EDD002E57D00122062191
:100FE0003846334602B0BDE8F0411847384801F0B2
:100FF0008FF904460028EFD02946201D01F044F85F
:10100000002304F130023148A38562632363214643
:1010100001F048F8DBE72F4801F07AF9054600288F
:101020003FD02D4801F074F9A860002835D002F0B7
:101030007DFE686068B30520D5F8088002F02AFCC0
:10104000C8E9006710F0FF0006BF082388F80830E1
:1010500088F80800606B294601F024F8636B1B6870
:101060009D4213D194F82D30012B28D91F2502F071
:10107000B3FE1A4BB0FBF5F11B68009301FB1501A1
:10108000174A234604F10C0000F030F902B0BDE825
:10109000F081A968104801F057F90E48294601F07F
:1010A00053F9606B01F064F8002895D12146074898
:1010B00001F044F82146064801F046F98CE7033375
:1010C000DBB201259D40013DD1E700BF5C0400205B
:1010D000800100208C01002074010020B80B00204A
:1010E000790D000008B5054801F000F9044801F049
:1010F000FDF8BDE80840034801F0F8B88C01002075
:101100007401002080010020014B1B6A184700BFBA
:101110005CCE0000014B5B6A184700BF5CCE00004C
:1011200010B50D4B82B01B6898470C4B04469B6A68
:1011300001A91920984701280BD0002C019BB8BFAA
:101140001524802BD4BFC4EB0300C4F1800002B08F
:1011500010BD002002B010BD14CE00005CCE000017
:10116000FFF71ABF30B50D4C83B0A56A6946192048
:10117000A84748B901A90420A84738B101F04AF8A6
:10118000FFF7B0FF236A984703B030BD0199E36AC7
:1011900021F00201019104209847EFE75CCE0000A6
:1011A00030B583B002F016FB032804D0264B9B68B1
:1011B0009847002801DA03B030BD0D2002F078FB1B
:1011C000224900F067FF18B902F07AFB0028F2D03C
:1011D0000C2002F06DFB1D4900F05CFF0446002866
:1011E000E9D101F029F80546A0B1072002F052FB31
:1011F0000028E0D002238DF804308DF8054002F07D
:10120000E5FA134B8278DB688DF80620032101A8EC
:101210009847D0E701F036F8072002F03BFB18B9F9
:101220000C4B9B689847C6E702238DF804308DF875
:10123000055002F0CBFA064B8278DB688DF8062069
:10124000032101A89847EBE714CE00002C060020EC
:101250005CCE0000D8CF0000F8B5038805462BB15E
:10126000452B14D1882916D00120F8BD174B1C68D6
:1012700034B1A168201D00F085F92468002CF8D154
:10128000134B01221A7045232B800120F8BD002347
:1012900003800320F8BD0D4B1C68002CF3D0231DE8
:1012A0009A4205D02468231D002CECD09A42F9D133
:1012B0000648084E214600F041FFD4E9052337686F
:1012C00032600BB1E06998473760DCE73C050020ED
:1012D00032270020B80B0020024B03480021196080
:1012E00002F012BC3C0500209801002070B582611C
:1012F0000D4A04461078E361049B636130B9A16034
:101300000A482146BDE8704000F0CCBE084D094BAC
:101310002E682B60201D00F035F92E602146034811
:10132000BDE8704000F0BEBE322700203C05002022
:10133000B80B00209801002070B50C4B1B780446B8
:101340002BB921460A48BDE8704000F0ABBE094DFC
:10135000094B2E682B60043000F01EF92E602146E8
:101360000348BDE8704000F09DBE00BF322700205A
:101370003C050020B80B00209801002010B50A4B56
:101380001B7804463BB9C0E9033321460748BDE852
:10139000104000F0D3BE043000F010F9214603489D
:1013A000BDE8104000F0CABE322700203C050020F6
:1013B00008B5084B1B78014623B10069B0FA80F0EC
:1013C000400908BD044800F0DDFE80F00100C0B215
:1013D00008BD00BF322700203C05002010B50446A0
:1013E000C0B207F0C9FC204610BD00BF70B570B197
:1013F0000E46451E002404E0A64206D007F0BCFCC1
:10140000013415F8010F0028F6D1204670BD0446BE
:10141000FBE700BF10B5FFF747FB0B4B1A68D2E99B
:10142000003192680B44191A52B1D2E900342344B6
:101430001B1A9268994228BF1946002AF5D1431811
:10144000024A136010BD00BF440500204005002083
:101450002DE9F843038805465BB3592B2CD1872926
:101460002FD0822920D12C4FDFF8B4803C684FF078
:101470000009CCB1002603E0A3682646A3B11C46B0
:10148000204607F06BFC0028F6D0E0682246882151
:1014900002F0E8FB03464046002B2AD002F014FC81
:1014A000A3682646002BEAD159232B800120BDE8F2
:1014B000F883194A1360F7E7002303800320BDE88F
:1014C000F883154F3968002019B9EDE789680120C4
:1014D000D9B1CB689342F9D000B139608B68002B49
:1014E000E2D0D868904207BF9B688B6019469B6822
:1014F000F5E7E360A3686EB1B3603B68C4F8089099
:101500002BB1FFF787FF3C68B3E73960CCE7034AAC
:101510001360C9E73B60F1E7440500204005002067
:10152000A801002010B50446104802F0CDFB104978
:10153000E3680A684BB142B194420FD0134601E010
:101540009C420BD09B68002BFAD10A4BA2601B680F
:10155000E3600C60BDE81040FFF75CBF054B1B6803
:10156000E360BDE81040FFF755BF00BFA8010020B1
:1015700044050020B80B0020014802F0A5BB00BFC5
:10158000A801002010B5044607F0D2FB2046BDE8B4
:101590001040FFF7C7BF00BF10B5044607F0D0FBEF
:1015A0002046BDE81040FFF7BDBF00BF024B1868E2
:1015B000003818BF012070474405002010B5124BB9
:1015C00019688142044614D00B462BB19A68A24296
:1015D00006D01346002BF9D10023C4E9023310BD15
:1015E000A2689A6049B1FFF715FF0023C4E90233EE
:1015F00010BD82681A60002AF5D1044B00221A60DF
:101600000023C4E9023310BD44050020400500203A
:10161000014B1888704700BF7803002000283ED097
:10162000037A022B30B410D00378022B15D0037943
:10163000B3B10024C37913F0030318BF012301B130
:101640000C6002B1136030BC7047C579447A0379ED
:1016500065B90CB9012BF2D0DBB100231C46EEE7D3
:10166000447A14F0030418BF0124E3E7C4B1032D46
:1016700037D1032C2ED0022C24D143BB022D2DD0E8
:101680000123032D24D1A4F10204B4FA84F46409E3
:10169000D5E7023C012C8CBF00240124CFE7704722
:1016A0004BB9022D08BF0123EAD1A4F10304B4FA17
:1016B00084F46409C3E7032D01D0022D02D123462F
:1016C0001C46BCE7002BC8D1022DDAD1EDE701237F
:1016D0000024B4E7002BC0D10123D4E701231C462A
:1016E000ADE7022DC7D1002BF1D1022C4FF0010341
:1016F000DBD11C46A3E700BF30B500230B608B8015
:10170000437DDB075CBF01230B70037E012B83B09D
:101710000D46044623D901AA694604F11000FFF7DB
:101720007DFF009B0BB10223EB70019B0BB10223E9
:101730006B70E37D03F00303022B03D0032B14BF74
:1017400000230823AB70637E03F00303022B03D056
:10175000032B14BF002308232B7103B030BDC37DBE
:1017600013F0030309D0437E13F0030305D0C38BAA
:10177000828B9B1AB3FA83F35B092375CBE700BF17
:1017800002280CBF012307230B441A78FF2A1846AE
:1017900003F1FF3303D18142F7D1012070470020CC
:1017A000704700BF00B583B06946FFF7A5FF9DF8FD
:1017B00000309DF801209DF802009DF803100233CF
:1017C000134403449DF804209DF805000B44134482
:1017D000184403B05DF804FB4378827890F800C0A9
:1017E000DB00120102F0100203F0080313430CF0B7
:1017F000070290F803C0134302794FEA4C1C0CF027
:10180000200C920143EA0C0302F0400213430B70D8
:101810004379827990F809C003F00103520043EA4A
:101820008C1302F0020290F807C01343027A4FEAC9
:101830008C0000F00C001201034302F0300213434D
:101840004B70704770B582B004460D466946FFF78D
:1018500053FF04F110002946FFF7BEFF9DF800304A
:10186000012B04BFA37EAB709DF801300CBF032099
:101870000220022B06D1A38B2B54A28B431C120AED
:10188000EA5402309DF802605EB1731E23442918A9
:1018900093F800C001F801CBA34203F1FF33F7D165
:1018A00030449DF80330022B06D1E38B2B54E28B9E
:1018B000431C120AEA5402309DF8046056B1F31D2D
:1018C00023442918073413F8012901F8012BA342F6
:1018D000F9D1304402B070BD02784378C2F3C00041
:1018E00002F0070C4870C2F3401081F800C0C870C5
:1018F000C2F3001C03F00100C2F3801281F802C0A1
:101900000A71C3F3400CC3F301124871C3F38100A1
:101910009B0981F806C0C8710A724B72704700BFFC
:10192000012943DD2DE9F04186B00F4603A9144695
:101930000546FFF7D1FF0B4603CB9DF811201B880E
:101940002061616123836AB3AE1C03A802AA01A9C6
:10195000FFF764FE9DF81380B8F1000F43D0029B9F
:10196000002B31D1B8F1020FA38367D0B8F1030F78
:101970004DD09DF81580B8F1000F2CD0019BBBB95C
:10198000A38BE383B8F1020F4DD0B8F1030F31D030
:10199000701B3B1A8742C4E90E6300DA002006B0D0
:1019A000BDE8F081AB78A376EE1CCEE7002070474F
:1019B000727816F8023B03EB0223029A9BB2E38390
:1019C000002ADFD1A383DDE7727816F8023B03EB30
:1019D00002239BB2C6E71E4904F1080000F054FB45
:1019E000A4F81E80D4E71A49204600F04DFBA4F865
:1019F0001C80BEE706F10800034604F1080213F854
:101A0000011D02F8011BB342F9D10646C0E706F1F9
:101A100008000346621E13F8011D02F8011FB342BD
:101A2000F9D10646A5E70A4904F1080000F02CFBAD
:101A30007378237216F8023B6372A9E704492046C3
:101A400000F022FB7378237016F8023B637090E776
:101A500020CE000030B591B001F0A8FE044601F0A0
:101A6000B9FE6A4601462046FFF75AFF00283ED0DD
:101A7000044601F081FED0B39DF810100B2001F058
:101A800003FF9DF81310072001F0FEFE9DF81730AC
:101A90008BB1BDF81C50FFF7BBFD854205D0BDF8EA
:101AA0001C204FF6FF739A4221D19DF8170069461A
:101AB000FFF766FEB0B102A90C2001F0F1FE9DF81F
:101AC00015303BB14FF6FF71062001F0DDFE2046D8
:101AD00011B030BD9DF81A10062001F0D5FE204649
:101AE00011B030BD69460D2001F0DAFEE3E74FF09A
:101AF000FF34ECE7F8B505460B2014460E46A84720
:101B000000232074A37496B3E37463750820A84778
:101B1000002701232376A07567740620A847A076C6
:101B2000FFF776FDE0830920A84701280CBF3B465C
:101B300003236376FFF76CFDA0830A20A8470128E2
:101B40001AD066B90323E375637E022B0CD0E37DC4
:101B5000A3F10203B3FA83F35B092375F8BD0223F3
:101B6000E375637E022BF2D101232375F8BD0720B4
:101B7000A8476675E074C9E7E775E5E730B591B049
:101B80000546FFF745FD4FF6FF74A0423AD04022CC
:101B90000021684609F01CF901F092FE6A460146F0
:101BA0001A48FFF7A7FF01F08BFE18B3ADF800400D
:101BB0000C2001F07DFE014602A800F065FA01F05C
:101BC000F5FD0E9001F006FE034668460F93FFF701
:101BD000E9FD044615B9204611B030BD01F09CFD69
:101BE00080B101F0F3FD01466846FFF72BFE204669
:101BF00011B030BD0D2001F05BFE0146684600F0DB
:101C000043FAD5E74FF0FF34E5E700BF9538000011
:101C10000120FFF7B3BF00BF0020FFF7AFBF00BF39
:101C20000649074A074B9B1A03DD043BC858D050AE
:101C3000FBDC06F041FEFEF769FC000008D2000064
:101C40000000002084030020FEE7FEE7FEE7FEE739
:101C5000FEE7FEE7FEE7FEE7FEE7FEE700F01F0314
:101C600001219940C0F3471000F068B808B501F0B1
:101C700083F800B108BDBDE8084001F045B800BFD9
:101C800030B583B00223002501F01F018DF8063026
:101C900012F00C03ADF80450144641EA401508D088
:101CA000042B26D0082B28D00C2B04BF03238DF83F
:101CB000043014F0030306D0022B16D0012B04BF0E
:101CC00003238DF805300F4A01A9284601F05EF87C
:101CD000230604D4284601F059F903B030BD012190
:101CE000284601F0E3F803B030BD01238DF805303C
:101CF000E9E701238DF80430DBE702238DF8043097
:101D0000D7E700BF5D1C000001F01F0141EA401051
:101D10001F28CABF054B4FF0A04300F01F00D3F8A7
:101D2000101521FA00F000F0010070470003005088
:101D30000146014800F0B6B94805002070B50C4BCB
:101D40001C689CB105460E4601E0246874B1237AF4
:101D5000AB42FAD1E36816EA0301F6D0636828467D
:101D6000002BF2D098472468002CF0D170BD00BF42
:101D700048050020024B00221A60FFF777BF00BF22
:101D800048050020EFF3108072B6704780F310888A
:101D9000704700BF10B51B4A1B4C00234FF0010CCD
:101DA00040FA03F1C90713D59178B9B1117892F8C7
:101DB00001E001F01F0141EA4E111F29C6BF01F0E9
:101DC0001F01A6464FF0A04E0CFA01F1CEF80815FF
:101DD0000133042B02F10302E2D110BD117892F815
:101DE00001E001F01F0141EA4E111F29C6BF01F0B9
:101DF0001F01A6464FF0A04E0CFA01F1CEF80C15CB
:101E0000E6E700BF9CCC0000000300500F4A10B46E
:101E10000F4C02F10C0C03201378517803F01F03D0
:101E200043EA41131F2BC6BF03F01F0321464FF0A7
:101E3000A04103F5E0730332944541F82300EBD150
:101E40005DF8044B0F20FFF7A5BF00BF9CCC00003E
:101E50000003005010B50948FFF76EFA084800F07B
:101E6000A7FB48B1064C037A5B0801460372204683
:101E700000F06AFB0028F6D110BD00BF0C06002060
:101E8000B80100200146014800F0C0BBB8010020A5
:101E900080B110B50446FEF707FE2368C01AB0F5FE
:101EA000963F05D2207A032894BF0020012010BD60
:101EB000002010BD0020704770B50546144689B15A
:101EC000022907D006290CD129462B48BDE87040CD
:101ED00000F09CBB2848294600F098FB06460028E5
:101EE00032D170BD2448294600F090FB06460028F8
:101EF00035D0FEF7D9FD337A30602344102BA8BFCC
:101F000010233372FEF7D0FD3368C01AE401B0F538
:101F1000963FA4B208D2337A042BB38834BF192277
:101F20000A222BB9B48070BDB3881922002BF9D0D6
:101F3000C2F16400114904FB02F203FB0022A1FB81
:101F400002325209B28070BDFEF7AEFD337A3060C6
:101F50002344102BA8BF102333720C34D2E733462E
:101F600005480822294600F06DFB06460028B8D037
:101F700047F6FF73C380BCE7B80100201F85EB5113
:101F800038B50546042001F085FC29460446224860
:101F900024B200F03BFB40B3B0F9062047F6FF73D4
:101FA0009A422DD004EB84035B001C4C5A2112FB97
:101FB000013284FB0234D217C2EB6414838824B24A
:101FC000C48003B138BD04F15A0212B222EAE272AF
:101FD0001E2A134BA8BF1E22D201A3FB02321209F4
:101FE00002F5807292B2828038BD034608220A4808
:101FF000294600F027FB0028E4D047F6FF73C38092
:102000008388C480002BDDD147F6FF739C42DAD170
:102010004FF48072E7E700BFB80100201F85EB5145
:102020008988888838B5094800F0C2FA60B1074D40
:1020300004462146284600F08BFB2146284600F046
:1020400083FA04460028F4D138BD00BFB80100204F
:1020500000B5002183B0084800F054FA074B084A45
:102060001B680093074800234FF4E131FFF73EF966
:1020700003B05DF804FB00BFB8010020B80B0020DE
:10208000551E00000C0600200B684A684260036081
:10209000704700BF08B5082208F052FDB0FA80F082
:1020A000400908BD0368DBB110B4002400E013460A
:1020B00099420FD01A681C46002AF8D100230B6001
:1020C0000368CBB11A461B68002BFBD111605DF889
:1020D000044B70470A686CB1226000221A60EDE779
:1020E00000230B6003684BB11A461B68002BFBD121
:1020F000116070470260F0E70160E8E70160704737
:1021000030B405684DB12B46002400E013469942D7
:1021100007D01A681C46002AF8D10D6030BC016057
:1021200070470A683CB1226000221A6005680D60A1
:1021300030BC016070470260F6E700BF03689BB1E6
:1021400010B4002400E0134699421A6805D01C46DA
:10215000002AF8D15DF8044B704734B122600022A8
:102160001A605DF8044B704770470260F7E700BFE4
:1021700003682BB100201B680130002BFBD1704796
:1021800018467047006848B1884202D105E0814294
:1021900003D000680028FAD170470120704700BFC3
:1021A00000B58BB002462821684608F01FFC69463E
:1021B000024801F0DFFB0BB05DF804FB28CE000005
:1021C00008B3F8B50025114F0446012665B1EB07A9
:1021D0000FD52178384601F0CDFB082E12D00135FD
:1021E00001360134002DF2D12178384601F0C2FBCE
:1021F000F5E72E2001F076FD2178384601F0BAFB94
:10220000082EECD1F8BD024801F0B4BB3CCE000072
:102210002CCE000008B501F0DFFD014B187008BDA1
:1022200033270020034B197806204A1C1A7001F04E
:102230002BBB00BF33270020F8B5FEF735FC104E4E
:102240000746344600250C2001F032FB2146FFF7FB
:1022500021FF103420B90135102DF4D10020F8BD34
:10226000062006EB051501F015FB2B7B8342F5D10B
:10227000A868381AB0F5206F8CBF00200120F8BD87
:102280003406002070B5184E002435460C2001F0AD
:102290000FFB2946FFF7FEFE103510BB0134102C52
:1022A000F4D10F2406EB041C64465CF8100DDCF836
:1022B0000410DCF80820DCF80C3066450FC4F3D1BC
:1022C000062001F0E7FA3073FEF7EEFB03460C2020
:1022D000B36001F0EDFABDE8704001460248FFF737
:1022E000D3BE002CDED1EBE73406002010B5044647
:1022F00042884068002108F06BFD23886288A0684E
:1023000003FB02F2BDE81040002108F061BD00BFF0
:1023100030B44588ADB14368002202E00132AA42E0
:102320000CD0194601330C78002CF7D101230B7027
:102330000588806802FB050030BC7047002030BC77
:1023400070472846F8E700BF10B4448882685CB143
:102350008A420ED0B0F800C0002301E0914209D0BB
:102360000133A3426244F9D14FF0FF305DF8044BD2
:10237000704700234268D15C0029F5D00020D0547A
:102380005DF8044B704700BF83688B4208D84288D1
:10239000008800FB023081422CBF002001207047E2
:1023A00000207047418849B143680020194413F860
:1023B000012B02B901308B42F9D1704708467047B2
:1023C00038B50D4B0D4D1C68002818BF05463CB1B3
:1023D000211D2846FFF75EFE28B92468002CF7D19E
:1023E0004FF0FF3038BD064A064B9068201A801027
:1023F00003FB00F038BD00BF6407002020CE0000C2
:10240000CC010020ABAAAAAAF8B50F4B1C68C4B136
:102410000E4F0F4E0F4D002004E0211D03F0DAF99E
:1024200024686CB1B368E31A9B1005FB03F3FB5CF3
:10243000002BF5D10028F0D1201D2468002CF1D10B
:10244000F8BD2046F8BD00BF6407002054070020F7
:10245000CC010020ABAAAAAA2DE9F84F234CDFF843
:10246000A0B0DFF88CA0DFF88C900546884604F118
:10247000200754F8043FBBB19E68AEB1A5B1DAF8AD
:102480000820AA1A91100C3209FB01F10CD05868EF
:10249000DA6800FB012038B11BF801201B6842FA02
:1024A00003F3DB0700D5B047BC42E2D1D5B1104BF6
:1024B000104A9B68EB1A9B1002FB03F30E490F486E
:1024C0000022CA5429460BF80320FFF737FEB8F163
:1024D000000F01D1BDE8F88F29460548BDE8F84F47
:1024E000FFF732BF4FF0FF33E8E700BF30070020AF
:1024F000CC010020ABAAAAAA540700206407002040
:102500003C08002038B10368072B04D80C4A52F865
:102510002330984211D00B4A1368072B0BD810B404
:102520008160074903605C1C41F8230014600120AE
:102530005DF8044B704700207047816001207047B0
:102540003407002038080020844638B339B3F0B58A
:10255000C46845680B1B93FBF5F3591C1CD0114A4A
:10256000966803EB430316EB830315D00E4FDFF899
:102570003CE01B68991B8A1007FB02F202FB054036
:1025800053B10C3108D030B11EF80220DCF8001035
:102590000A41D207EDD5F0BD0020F0BD70470846D6
:1025A000704700BFCC010020ABAAAAAA3C080020BB
:1025B000124B1968F9B1124B9B68C91AD0B111F1CD
:1025C0000C0F17D00F4BC268891001FB03F3416851
:1025D00001FB032179B110B40B4C0268E35C134199
:1025E000DB0703D508465DF8044B70475DF8044BE4
:1025F000FFF7AABF0021FFF7A7BF00BF64070020B5
:10260000CC010020ABAAAAAA3C08002010B50446C1
:102610000846FFF7D5FE84B1431C02460DD0606822
:10262000E36800FB023038B1054B21689B5C0B412D
:1026300013F0010F08BF002010BD002010BD00BF27
:102640003C0800202DE9F041002843D03B4B0C46CC
:10265000002908BF1C4621460546FFF7D7FF002882
:102660003CD000262046FFF7ABFE471C18D06A6816
:10267000EC6802FB00440021204608F0A9FBEB684F
:102680006A68E31A93FBF2F35A1C06D028682C49B7
:1026900001228240C85C0243CA542046BDE8F08152
:1026A000DFF8A4804046FFF733FE074630B32548E5
:1026B0003946FFF7F7FCD8F808602146BE1B381DE5
:1026C000FFF7E2FC16F10C0F2BD100216A680846D7
:1026D00008F07EFB00242046BDE8F0812046FFF78D
:1026E0006FFE0130BDD11848FFF75CFE0028B8D15D
:1026F000FFF78AFE06460028ECD0B3E7002EE9D0AB
:102700003046FFF75DFE411CE4D0D8F8083000EBFE
:10271000400013EB8007DDD000213846FFF79CFE18
:10272000C5E70A496A68EC68B31001FB03F302FBD2
:1027300003440021204608F04BFBA0E720CE000018
:102740003C08002064070020CC010020ABAAAAAA04
:1027500020B321B3C3684268CB1A93FBF2F35A1C2F
:102760001DD030B5104C056814F803C0012202FAE0
:1027700005FE2CEA0E0C04F803C0C3684468CB1AAB
:1027800093FBF4F3591C0CD0084C0068E15C02FA8E
:1027900000F021EA0001E154104630BD70470020EE
:1027A0007047104630BD00BF3C0800205407002091
:1027B00098B189B1C2684368891A91FBF3F14B1C47
:1027C0000AD0064A036812F801C0012000FA03F398
:1027D00043EA0C035354704700207047540700200D
:1027E000A0B1A1B1C2684368891A91FBF3F14B1CF7
:1027F0000DD010B4074C0268635C012000FA02F2AD
:1028000023EA020363545DF8044B704770470020CD
:10281000704700BF5407002088B179B1C26843688F
:10282000881A90FBF3F0431C08D0054B996800EB25
:10283000400011EB800002D0043070470020704748
:10284000CC01002070B50B4B1C685CB105460E46F0
:10285000012D09D01DB963680BB1984718B92468D8
:10286000002CF5D1002070BDA3683046002BF6D0B7
:102870009847F3E74C08002030B583B0FFF782FAA1
:10288000BFF35F8F1D4B1B78ABB11D4B1D4902225F
:102890004FF0FF34C1F80843C3F88021C3F880200B
:1028A000BFF34F8FBFF36F8FBFF35F8F03B0BDE8F0
:1028B0003040FFF76BBA03F0FF02124B1049C3F828
:1028C0003021D3F830410194019CC3F83421D3F86E
:1028D000342100924FF0FF34009DC3F808430222D8
:1028E0004FF44054C1F88021C3F804430A60BFF399
:1028F0005F8F03B0BDE83040FFF748BAE801002021
:1029000000E100E00010004070B51B4CD4F85055B9
:10291000EDB2032D82B02AD0184B194A1949C4F8D8
:102920000415C3F8102502F5DE421432C3F814254D
:1029300001264FF00062C3F80465C3F80425FFF7D1
:102940009BFFD4F8003243F01003C4F80032D4F8EF
:102950000032022D43F40023C4F8003209D00023D2
:10296000C4F85831D4F858310193019B666002B025
:1029700070BDA66002B070BD0010004000F00140C4
:10298000381100405008002070B5324B324D002203
:10299000C3F8382184B0D3F838410094009CC3F8C0
:1029A0000C21D3F80C410194019CC3F83421D3F8D5
:1029B00034410294029CC3F830212C78D3F8303192
:1029C0000393631F7A2B039A02D8023CA1420ADACE
:1029D00081220021204808F0FBF9FFF795FF002431
:1029E000204604B070BD2246691C08F0DBF82B19A4
:1029F0001A4E5B78174A3F2B9ABF9B00DBB2FF232E
:102A00003370D2F84815164B01F07F01494249B2A4
:102A10001970042089B200F037FF3178032000F0EC
:102A200033FF104B2A7810491A74D1F84C055860BE
:102A3000D1F8481599605200DA6058680238186079
:102A400081220021044808F0C3F9FFF75DFF20460A
:102A500004B070BD00100040500800203427002052
:102A600035270020D40800200080004010B50388DE
:102A7000044663B140F2D33293420DD1822901D092
:102A8000012010BD134A1378053B7A2B08D940F278
:102A9000D3332380012010BD00230380032010BD09
:102AA0000D4BD3F830311BB992F88030002BEED0AB
:102AB00007F0E6FF00F0A4FD00F078FE8021FFF7AC
:102AC00063FF0028E3DD80B200F06AFE034BDB68A1
:102AD0009847DCE75008002000100040DCCD0000E3
:102AE000184B1B7803B1704700B503F0FF02164B7B
:102AF000D3F8301183B029B9D3F8342192B903B097
:102B00005DF804FBC3F83021D3F8302100920F4B5D
:102B100000990F48012283F8802003B05DF804EB90
:102B200001F0D2B8C3F83411D3F8343101938122C3
:102B30000648019B08F04CF903B05DF804EBFFF781
:102B4000E3BE00BFE8010020001000405008002054
:102B5000D801002010B580B1012800D010BD0E4C66
:102B60002369A070002BF9D01A6822615B680120EC
:102B700098472369002BF7D1F0E7074CA36801229F
:102B80006270002BEAD01A68A2605B680020984748
:102B9000A368002BF7D110BDEC08002010B50B4C3A
:102BA000237882B013B1852002B010BD084863605D
:102BB000A3602361E36000F03BF8019000F044F86B
:102BC00001980123237002B010BD00BFEC08002063
:102BD000552B000038B5154DAB78044673B110B1D4
:102BE0004368012098470020FDF70AFDEB68013398
:102BF000EB600020BDE83840FDF70ABD03F0FF00A0
:102C0000FDF7FEFC64B12A6942B1944208D0134634
:102C100001E09C4204D01B68002BFAD122602C6199
:102C2000EB68002BE2D100F025F8DFE7EC0800208C
:102C3000044A137923B90121106091801846704726
:102C40008520704700090020084B1A68D20707D575
:102C5000074A4FF080410123C1F8183513707047BF
:102C6000C02283F8002301221A60F1E700E100E0AE
:102C7000362700204FF080430022C3F8042182B0A1
:102C8000D3F804210192019802210122C3F8041310
:102C90009A6002B0704700BF10B54FF0804382B019
:102CA000D3F8002162B10021164AC3F80011D3F80D
:102CB0000011507900910121009CC3F80813A8B1BC
:102CC0004FF08043D3F80421CAB10022C3F8042195
:102CD000D3F80421019202210A4A0198C3F808138B
:102CE0001368012002B0BDE8104018471368517105
:102CF00098474FF08043D3F80421002AE5D102B071
:102D000010BD00BF0009002070B5184D95F86A404D
:102D100082B044BB3022A818FF2108F059F8284699
:102D20004FF0FF3640F8046B2C22FF2108F050F8DA
:102D30000F4BA5F86840C022C5E9186483F8062344
:102D400040221A600B4BC3F87C41D3F87C110191EF
:102D500001984FF000420121204685F86A10C3F81F
:102D6000042302B070BD082002B070BD0809002025
:102D700000E100E000600040034B93F86A00003877
:102D800018BF0120704700BF08090020F0B5444D6E
:102D90002B1893F93030002B01DB0820F0BD8E7822
:102DA000C6F34006002E0CBF0823002305EB830C5E
:102DB000ACF1040C0CBF4FF00C0E4FF0080E02E00B
:102DC00001339E453ED95CF8044F0134F8D145F8F3
:102DD00023202A185CB282F8304016B9EA1882F82B
:102DE00058008A7856071ED4D70749D51F2887BFB1
:102DF0002C4A00F01F0606464FF0A04202EB860266
:102E0000D2F8006726F00206C2F80067264FC6080F
:102E100000F0070E17F806C0012202FA0EF242EA8D
:102E20000C02BA558A7812F002020DD1083C45FA1C
:102E300084F5097895F8603043EA811385F86030AD
:102E40001046F0BD0420F0BD9B0003F1804303F564
:102E5000C0430978D3F8104524F44F3424F4407467
:102E6000C3F8104502020904D3F8100501F44031FB
:102E700002F47C520A430243C3F810250020F0BD3F
:102E80001F284E7887BF074F00F01F0202464FF001
:102E9000A04702F5E072B60047F82260B6E700BF2F
:102EA00008090020000300506C09002030B4344CA5
:102EB00004EB000C82B09CF93030072B24DD083B7A
:102EC00044FA83F393F860309B09032B47D0012B1E
:102ED0000CBF4FF400324FF440321F288ABF294BF9
:102EE0004FF0A04300F01F0003EB8000D0F8003744
:102EF00023F44033C0F80037D0F800371A43C0F845
:102F0000002702B030BC7047DAB2072AF9D898001F
:102F100000F1804003F1400200F5C04052B292003F
:102F2000D0F8105592B202F1804202F5C04245F04D
:102F30000105C0F810550020106012680192019A36
:102F40000029DED09CF9302054F82220002AD8D065
:102F50000D49012202FA03F3C1F80433D1E71F2817
:102F60008ABF084A4FF0A04200F01F03D2F8102594
:102F700098BF0346DA4002F0010202321204ACE7C5
:102F8000080900200003005000600040194B034472
:102F900093F93030072B18DCDAB2072A14D810B4B2
:102FA0009A0002F1804202F5C042134CD2F810059B
:102FB000012120F0010001FA03F3C2F81005C4F862
:102FC00008335DF8044B704770471F288ABF0B4BCE
:102FD0004FF0A04300F01F0003EB8000D0F8003753
:102FE00023F44033C0F80037D0F80037C0F800377A
:102FF000704700BF08090020006000400003005037
:103000002DE9F04F0022164689B0CDE90222724B1D
:10301000724C73480122354604E0043383424FEA80
:10302000420211D019680129F7D1D4F804131142D2
:10303000F3D01D60196800910433834246EA02060A
:1030400000994FEA4202EDD1644BD3F87C21012A6A
:1030500021D0F3B2D3B1634F01250024A30003F1C3
:1030600080432E4203F5C0434FEA45050BD0D3F809
:10307000100557F82420D3F81015C0F30520C1F32C
:10308000014102B190470134082CE7D1002E16DB34
:1030900009B0BDE8F08F0022C3F87C21D3F87C3161
:1030A00001934FF0A042019BD2F810254E4B0292A3
:1030B000D3F810250392F3B2002B40F089804FF033
:1030C000FF334A4D0DF1100ACDE906330022049278
:1030D000CAF80420A5F16408454C0027012614F91C
:1030E000010B431C33D0C0F3C20E0EF120030DEBD5
:1030F000030C00F007031CF8081C06FA03F319423E
:10310000C2B200F03F0022D008EB000191F930106C
:1031100058F821909109B9F1000F4BD003294BD0F9
:103120001F288BBFDFF8C0E04FF0A04E02F01F0257
:1031300002460EEB82021CF818ECD2F800C71EEA19
:10314000030FCCF3014C1AD1BCF1030F3BD0A542C5
:10315000C5D1002F9CD04FF0A0430299D3F8103571
:10316000214A9942D2F8102502D1039991428FD079
:10317000DDE904010293069003920791ACE7BCF1EC
:10318000020FE4D1032904D0B9F1000FDFD0C84702
:10319000DDE74FF4403CD2F8003723F44033C2F867
:1031A0000037D2F8003701374CEA0303FFB2C2F808
:1031B0000037E9E70329CAD11AF80EB04BEA030B2E
:1031C0000AF80EB0ACE70329DED14FF4003CE2E789
:1031D00046F000463FE700BF00610040006000404D
:1031E0002061004008090020000300506C09002005
:1031F0006809002010B54FF0804386B0D3F804432F
:10320000620703D5D3F80821002A62D1A30605D5A9
:103210004FF08043D3F81421002A4FD1600605D522
:103220004FF08043D3F81821002A3BD1210604D562
:103230004FF08043D3F81C214ABBE20504D54FF080
:103240008043D3F82021B2B9A30512D54FF08043B3
:10325000D3F824216AB10022C3F82421D3F8242111
:10326000214B0592059A1B68022006B0BDE810406C
:10327000184706B010BD0022C3F820211A4AD3F81F
:103280002031049301201368049A9847DCE700205A
:10329000C3F81C01144AD3F81C3103931368039A32
:1032A0009847CAE70022C3F81821104AD3F818310A
:1032B000029301201368029A9847B7E70020C3F8E9
:1032C00014010A4AD3F8143101931368019A9847FC
:1032D000A4E70022C3F80821054AD3F80831009377
:1032E0001368009A984791E77C090020780900202C
:1032F0007409002008B5FFF77DFFBDE80840FFF71F
:10330000CBBC00BF074B0022C3F8002182B0D3F82A
:1033100000210192019A044AD3F808051368C0B24B
:1033200002B0184700D000408009002030B41F4C84
:10333000437944F823201E4C03EB4303E35C93BB27
:1033400090F904308A78002B26DB03F160435201A8
:1033500003F56143D2B283F8002390F90430002BC7
:1033600009DB144D4FEA531C012203F01F0302FA3C
:1033700003F345F82C3003680A88C3F8082543791D
:103380000879C97803EB4303E21850700120E05438
:103390009170002030BC7047074D03F00F035201BD
:1033A000D2B2EA54D9E7082030BC7047880900201F
:1033B0008409002000E100E014ED00E00368044A05
:1033C00001211960437903EB43030221D154704773
:1033D0008409002010B403680024C3F8004183B0BE
:1033E000D3F80041036801940122019CC3F84423EF
:1033F00011B10368C3F8042303B05DF8044B7047B0
:103400002DE9F041274E284FDFF8A08084B000243A
:103410004FF48035D6F804332B4211D057F82430BE
:103420000022E0B263B1C6F84853C6F8085347F823
:10343000242057F824300393D8F80030039A984793
:103440000134032C4FEA4505E4D1164BD3F804238D
:10345000D10702D5D3F80021C2B9124BD3F8042307
:10346000920710D5D3F804216AB10022C3F80421D1
:10347000D3F804210D4B0192019A1B68052004B07A
:10348000BDE8F041184704B0BDE8F0810022C3F860
:103490000021064AD3F80031029304201368029AEF
:1034A0009847DAE700B0004040B1004088090020AA
:1034B00010B5084CD4F8003182B04BB1064B1B68F4
:1034C00098470023C4F80031D4F800310193019BE0
:1034D00002B010BD000001408C09002070B5114BF6
:1034E000114A1D781160DDB9104E02780121197062
:1034F000C6F80C25416804464FF47A720023C803CD
:10350000490C09F0E9F9C6F80405237A084A5B0179
:10351000DBB282F810334FF480331360284670BD5D
:10352000082070BD382700208C09002000000140D1
:1035300000E100E0044B054901220220C3F8042306
:103540001A600870704700BF000001403827002053
:1035500010B504460020FDF753F80E4A1378072BE8
:1035600011D80D492370581C1070D1F8080501229C
:1035700002FA03F30343C1F8083500240020FDF7E5
:1035800047F8204610BD04240020FDF741F82046EE
:1035900010BD00BF3727002000000140034B044A44
:1035A00000F5C07043F82020704700BF00000140C4
:1035B0003546526E0020704701207047002070474A
:1035C000002070470120704741B1192801D0012027
:1035D00070474FF6FF730B60002070470220704762
:1035E000012070470120704701207047002070477C
:1035F000002070470020704700207047002070476F
:103600000D480E4A0E49002310B503800D480E4C9C
:1036100003800E4813600370C2E902332046C2E9FA
:1036200004335360FEF730FD04F108000449BDE89F
:103630001040FEF729BD00BF20270020200A0020EF
:1036400020CE00001E2700209009002039270020EE
:103650002DE9F041154ADFF86880154FDFF864C0A6
:10366000144E0C46802914494FF00003C2E9003380
:10367000C2E90233C2E904330B70054641463846BD
:1036800028BF8024ACF800303380FEF7FDFC4146B3
:1036900007F10800FEF7F8FC22462946074807F024
:1036A00081FA34802046BDE8F08100BF200A002066
:1036B000900900201E27002039270020A0090020A3
:1036C00020CE0000202700202DE9F0410E4A0F4BAC
:1036D00014781F88E519802D03DD00252846BDE8F4
:1036E000F081DFF8308022464146064607F05AFA5C
:1036F000074B198821443A46301958FA81F107F0EE
:1037000051FA2846BDE8F081392700201E27002005
:1037100020270020A009002010B5134B134C144A99
:1037200094F800C01B881288634452FA83F39BB25A
:103730001A18802A16DC013B1BB2002B0EDB0D4A47
:10374000591C03EB000E11447244013B1BB211F8EB
:1037500001ED02F801E9B3F1FF3FF6D160442070BA
:10376000012010BD002010BD202700203927002097
:103770001E270020A0090020074A1388834209DB86
:103780000649B1F800C080B21B1A6044088013805B
:1037900001207047002070471E27002020270020AE
:1037A000014B1880704700BF1E270020044A054BBC
:1037B00012881B780448134450FA83F0704700BF06
:1037C0002027002039270020A0090020004870474A
:1037D000A0090020014B1888704700BF1E27002059
:1037E0000549064A064B128808781B88104453FA8C
:1037F00080F080B2704700BF3927002020270020CA
:103800001E27002030B50E4C0E4D84468E460FCC40
:10381000CCF80000CCF80410CCF80820CCF80C3020
:1038200003CCCCF81000CCF814100FCDCEF800006B
:10383000CEF80410CEF80820CEF80C3030BD00BF12
:10384000200A00209009002010B584468E460068AA
:10385000DCF80410DCF80820DCF80C30084C0FC44D
:10386000DCF81000DCF8141003C4064CDEF800008D
:10387000DEF80410DEF80820DEF80C300FC410BDAE
:10388000200A002090090020014B23F810107047F7
:10389000200A0020014B33F810007047200A002056
:1038A000024B0C3803EBC000FEF7EEBB9009002082
:1038B000024B0C3803EBC000704700BF900900209A
:1038C00001490248FEF7E6BB20CE0000980900201F
:1038D00008B5FEF74FFABDE80840FEF797BA00BFFB
:1038E00000B583B0FDF72AF8002000F07BFA05F060
:1038F00057FA02F0DFFE4FF08053F420CE2136223B
:103900008DF800008DF801108DF80220D3F8A82062
:103910008DF80320D3F8A43001936B4603CB034BFF
:103920001860596003B05DF804FB00BF2C0600204E
:103930000148002100F0E8B88002002010B5FEF731
:1039400021FA0446BFF35F8F00F080F900B930BF61
:10395000BFF35F8F2046BDE81040FEF717BA00BFE7
:103960000AB90020704708B508461146FDF73EFD2C
:10397000002008BD0FB400B583B004AA054852F872
:10398000041B019204F0E6FA03B05DF804EB04B006
:10399000704700BFF80100202DE9F8432E4D2A683A
:1039A0008242044655D0002A40D0134601E0002B45
:1039B0003CD01B689C42FAD1002B37D0274EA37B0A
:1039C000376853B1A36843B18C4206D000223460FB
:1039D000832104F10C0098472A68944228D02AB128
:1039E0001368A3422FD01A46002AF9D1A37BE3B172
:1039F0002D680023A373C5B14FF002084FF00109F1
:103A0000AB7BDB070ED5AB68224605F10C008721A6
:103A100043B1356085F80E809847023801280DD9EA
:103A200085F80E902D68002DEAD13760BDE8F88347
:103A300023682B60A37B002BDAD1F6E729462846C2
:103A4000FFF7AAFFEEE723681360A37B002BCFD11B
:103A5000EBE71346B0E700BFBC0B0020B80B00201B
:103A600038B583687BB104460A4804600220A0731D
:103A700004F10C000D4698470238012804D9832D23
:103A800002D00123A37338BD21462046BDE838404B
:103A9000FFF782BFB80B0020F8B5134A134B146828
:103AA00000221A70D4B1124F0125022601E02468C9
:103AB000A4B1E37B002BFAD0A368E581002204F1D6
:103AC0000C008221002BF2D03C60A673984702388C
:103AD000012804D9A5732468002CEAD1F8BD214639
:103AE0002046FFF759FFE2E7BC0B00203D270020EE
:103AF000B80B0020034B1878FF281ABF421C1A701D
:103B0000802070473B270020F8B5164A156885428B
:103B100007D0044635B12B4600E01BB11B689C4220
:103B2000FBD1F8BD002CFCD00F4EA3682560012509
:103B3000146000223768A573A2815BB10A46022196
:103B4000A1733460812104F10C0098470238A84227
:103B500002D9A5733760F8BD21462046FFF71CFF48
:103B6000F8E700BFBC0B0020B80B0020014B8B22F4
:103B70001A7070473B2700202DE9F0412D4D2B781E
:103B8000FBB92D4E3078B8B12C4C2D4A237803EB7D
:103B90004301013303F01F03237002EB810301385B
:103BA0005C6852F821801F7AC0B2307064B1812FF6
:103BB0001FD0A37BDB071ED42B781844C0B2BDE80E
:103BC000F081FFF769FFDCE71E4B1C685CB9F3E787
:103BD000A37B13F0010F20464246394601D0FFF780
:103BE0003FFF246804B32B78002BF1D0FFF754FF7C
:103BF000EEE70123A373A368002BDDD012490C600C
:103C00000221A1734246394604F10C00984702385C
:103C1000012805D9832F03D001233078A373CBE784
:103C200021462046FFF7B8FE30782B781844C0B202
:103C3000BDE8F0813D2700203C2700203A270020E6
:103C4000380A0020BC0B0020B80B0020034A044BAC
:103C500010781B781844C0B2704700BF3D27002081
:103C60003C27002030B40F4C94F800C0BCF1200F6A
:103C700015D00D4B1B78634403F01F030CF1010CAE
:103C800003EB430384F800C0084C44F8232004EB02
:103C90008303054619725D60002030BC7047012027
:103CA00030BC70473C2700203A270020380A00200B
:103CB00038B5837B034CDB07256801D5FFF7D0FEC1
:103CC000256038BDB80B002018B1837B013B012B68
:103CD00000D97047024A0123C3731370704700BFB5
:103CE0003D270020FDF77ABB10B50446FCF788FAA3
:103CF00001462046FDF77AFBBDE810400A20FDF79B
:103D00006DBB00BF08B50448FEF7F0FABDE80840F7
:103D10000248FEF7EBBA00BF0C02002000020020B0
:103D20000148FEF73FBB00BF0002002038B50E4837
:103D3000FEF7EEFA044678B10C48FEF7E9FA0546BC
:103D4000206058B1FFF7C0FC05F19A01A5F880008A
:103D500005F18200FFF756FD204638BD2146024896
:103D6000FEF7F2FA2C46F7E7000200200C020020D2
:103D7000006800F19A018230FFF744BD10B5044697
:103D800021460748FEF700FB00B910BD2168054831
:103D9000FEF7DAFA21460248BDE81040FEF7D4BA31
:103DA000000200200C02002010B5044621460948FC
:103DB000FEF7EAFA00B910BD2468B4F88010204676
:103DC000FFF746FC04F19A0104F18200BDE81040BF
:103DD000FFF73ABD0002002008B5FCF703FB80B2F4
:103DE00008BD00BF0E4A012100231160C2F8003156
:103DF000D2F80031002BFBD0D2F808050849002387
:103E0000C0B2C2F80031D1F80031002BFBD0D1F89C
:103E10000825012340EA02204B6080B2FCF7B0BACB
:103E200000D000408279437990F804C09B1A13EACD
:103E30000C0F07D00368511C9B5C01EA0C028271D5
:103E4000184670474FF0FF30704700BF70B5134EF3
:103E5000337803B170BD04460D4605F0A1F9034661
:103E600084B10F4B2068616803C395B10D4BA868FE
:103E7000E96803C30A480122002105F0A5FA0123DD
:103E8000337070BD59689A68054C0068DB680FC4D0
:103E9000EBE70549024805F037FCEBE73E27002039
:103EA00040110020481100205025002010B50021AD
:103EB000084682B0FFF7CAFF174B002403F15401F4
:103EC00093F820201AB193F82120012A15D01C3331
:103ED0008B42F5D1204605F0F7F904B9C8B102F0DC
:103EE00025FA4023024621460020009300F0A0FB63
:103EF00000F01CFA002002B010BD1A7CFE2A02D08D
:103F000003F11004E3E75A7C802AE0D003F11004A7
:103F1000DDE74FF0FF30EEE7201D0020054B187B5A
:103F200030B1B3F84E00DB8AC01AB0FA80F0400915
:103F3000704700BF501100202DE9F0471B4CDFF8FF
:103F400070909DF824A0164680460D464FF4B0723E
:103F5000002120461F4606F03BFFB9F82030B3424F
:103F600005D108995246384602F03AFA18B90026A7
:103F70003046BDE8F087F023E37301264FF0FF33AE
:103F80004FF2F00284F80D802673E364A4F85030F9
:103F9000A4F85820C4F8089028686968AA68EB68F3
:103FA0001C340FC43046BDE8F08700BF501100201C
:103FB0004802002010B5044600F13C0394F850106C
:103FC00090F85100228A82B0CDE900102146207E6F
:103FD000FFF7B2FFF8B1114B627D206A617FB4F840
:103FE0001EC058619A73608B19760022217FA3F856
:103FF0001AC01882606D83F85C209974A17D83F8E3
:104000005410217D83F85310E17D186083F852101D
:1040100083F85520012002B010BD00BF50110020D0
:104020002DE9F0414F4D2B7BB5F84E40002B73D15D
:1040300095F85C30032B5CD0FFF770FF064620B18B
:10404000AB68BDE8F041DB691847D5F84480464FBE
:1040500001F0F6FC01F08EFC686C01F059FCA5F84B
:104060004E003868FEF7A4FA0446002838D1B8F1AB
:10407000000F5AD0B5F84E30B5F84C209A4201D90D
:10408000A5F84C30B5F850304FF6FF7293420AD085
:10409000B5F84E10914206D0CB1A002BB8BF5B4248
:1040A000B3F5007F44DC95F85B30002BC8D06B6C17
:1040B000002B43D0B8F1000F4AD001F0A7FE002337
:1040C00085F85B30AB68BDE8F041DB6918472368D1
:1040D0003BB321463868FEF737FA04460028C6D0BD
:1040E000204601F015FCB5F84E308342EFD826602B
:1040F000EFE7002001F03EFC4FF6FF739C42A5F86D
:104100004E309DD0194801F04BFE01F0EFFFAB6837
:10411000BDE8F041DB69184705F16400FDF72EF9B1
:1041200086E7FCF7C1FC2060D3E7B5F84E30A7E77F
:104130000F48A5F8501001F033FEB4E70B4885F89E
:104140005C3001F02DFE01F0BDFD01F0CFFFB6E7C0
:104150000123084885F85C3001F022FE01F0B2FF2F
:10416000ABE700BF501100206C02002094CE00008D
:10417000A4CE0000BCCE0000094A137B73B110B47A
:10418000044640B102F11C0CBCE80F0020606160E5
:10419000A260E36001205DF8044B70471846704749
:1041A0005011002010B5FFF7B9FE134C78B994F9FF
:1041B000582094F85830002A03F10103B4BFDBB251
:1041C00003F07F03002084F8583001F057F9FDF721
:1041D00029FF01F0F9FB05F0A1FE01F0DBFF94F8E7
:1041E00041305B0602D40023237310BD034802F064
:1041F000D3F80023237310BD501100207C11002040
:10420000024B032283F85C2001F0E6BF501100202E
:1042100008B50F4B1A7B8AB19A6C511C0ED08242A2
:104220000DD9101AB0F5967F986407D2586C28B152
:1042300001F07AFBBDE8084000F0C4BF08BD0021D2
:104240000322996483F85C20BDE8084001F0C4BFF4
:104250005011002010B5084C237B5BB194F840202E
:104260000146D20804F11C0006F06AFCB0FA80F0A6
:10427000400910BD184610BD5011002010B5FFF7C1
:104280004DFE88B1114C94F9522094F85230002A16
:1042900003F10103227BB4BFDBB203F07F03F02103
:1042A00084F85230E17302B910BDFFF737FE08B948
:1042B00084F85C00A3681B68984701F085FB0448FC
:1042C00001F06EFDBDE8104001F086BF50110020E6
:1042D000C8CE000010B50A4C237B03B910BDFFF710
:1042E0001DFE08B984F85C00A3681B68984701F0BC
:1042F0006BFB044801F054FDBDE8104001F06CBFB9
:1043000050110020C8CE0000074B9A7B187B1AB9C9
:10431000003818BF0120704728B193F85C000128CD
:1043200094BF00200120704750110020024B1B7BDE
:1043300003B97047FFF774BE501100202DE9F0411A
:10434000744D2B7B06460C462BB16A7B237E9A422A
:1043500009D0BDE8F081FFF7E1FD98B12B7B002B80
:10436000F3D1BDE8F0816C481022214606F0E8FB4D
:104370000028EED1628AEB8A9A4216D2BDE8F0415B
:10438000FFF74EBE637D012BE3D82046FFF712FEF8
:104390000028DED0AB681B689847604801F000FD3C
:1043A00001F04CFE01F0A2FED8E7E17D95F8520045
:1043B00001F09EFF628A002840D14FF6FF739A42B7
:1043C00004D095F85730013385F8573095F85210DE
:1043D000E07D01F08DFF48B1B5F84E20EB8A9A429E
:1043E00057D0FFF79BFD0746002868D022460121E1
:1043F000304600F0CBFEE8B1304601F013FB074633
:10440000002843D090F80680304601F00BFB0028CE
:1044100046D0638A8380637E8371AB6CABB96B8B50
:10442000C3EB03135B01AB64AB7B1BB117B16B6CCC
:104430009F4217D02B7B002B8BD09FE7EB8A9A42B1
:10444000F8D1374801F0ACFCF4E7002FF2D06B6CE8
:104450009F42EFD16B8BAA7BC3EB03135B01AB6471
:10446000002AE7D0607E414601F042FF0028E1D0FB
:1044700095F90F20EB7B002A03F10103B4BFDBB2F7
:1044800003F07F03EB7301F0C1FCD3E74FF0F008BA
:10449000BAE7E37D234885F85230FFF7EFFEA5E742
:1044A000304604F06FFD0028C4D01F4B01460122A6
:1044B00018682346FEF7C6F80028AAD1BAE701F02B
:1044C00069FE384601F056FA637D012B12D92B7B29
:1044D000002B8BD0FFF722FD08B985F85C00AB6894
:1044E0001B68984701F070FA104801F059FC01F080
:1044F00073FE7BE72046FFF75DFD0028E7D0AB6841
:104500001B689847054801F04BFC01F097FD01F04E
:10451000EDFDDCE7501100206C110020D8CE00002A
:10452000E0CE0000FCCE00006C020020C8CE0000EF
:1045300011B1084801F034BC10B50A460321044605
:1045400000F024FE20B12046BDE8104000F056BE29
:1045500010BD00BF18CF000038B591F823300C46CD
:104560000546BBB1FF2B1BBF0D4A508B4FF0FF33ED
:1045700043430A460020294605F034FC18B194F95B
:104580002530002B00DB38BD218C2846BDE83840A3
:1045900001F05CBC0A460146184605F0FFFBEEE759
:1045A0005011002070B5154D0E4695F8591004466F
:1045B00001F09EFE08B185F8594095F85830A342A5
:1045C00000D070BD95F85C30012B76B207D001F0B9
:1045D00061FC002EF5DA032385F85C3070BD002EF7
:1045E00002DA01F057FCF6E70223054885F85C3053
:1045F00001F0D6FBBDE8704001F04CBC501100202A
:1046000028CF000070B505460E461C463AB924B1C5
:104610001DB1064BAE801B7B23B9012070BD01F09C
:10462000D9FBF4E7FFF7FCFC012070BD501100201E
:104630002DE9F047264C82B09846237B9DF828A0B0
:1046400005460E46174653B1102204F11C0006F031
:1046500077FA80B34FF0F009FFF7A4FD01E04FF0C7
:10466000F0093B463146CDE9008A28460122FFF792
:1046700063FC0122A27340F60842228280201E229F
:1046800014492276A4F84E003C22134861610023AD
:1046900062834FF0FF310222A37484F85290A16428
:1046A00084F85330A4F8543084F85C2002B0BDE89C
:1046B000F04701F075BB94F9523094F85290002BFA
:1046C00009F10109B4BF5FFA89F909F07F09C3E76D
:1046D000501100200004800034CF000002484FF445
:1046E000B072002106F074BB50110020114A90797D
:1046F00018B992F82A10632901D00120704792F866
:104700002910A9B992F82B30042B10D10A4B187B31
:1047100070B193F80DC092F82D00604507D1B3F841
:104720004E3082F82D005BBAD385012070470846D1
:10473000704700BF482000205011002070B5174A74
:104740000546118816482B2206F072F804461548D3
:10475000FFF780FD08B9002070BD1349002005F067
:10476000D1FA10490646002005F0CCFA14B1A2781F
:10477000032A06D00028EED0002EECD04369B342C5
:10478000E9D1084C0FCC002648F2FE0129806E804A
:10479000AE80AA60EB60EE80012070BD2A27002069
:1047A00048200020602000206C1100202DE9F04FEF
:1047B000784BDFF8E89119888FB02B22484606F035
:1047C00037F818B18378032B054603D000200FB0CB
:1047D000BDE8F08FC2780592002A00F0C880037906
:1047E0006C79190903F00F006B7804900133DB003A
:1047F000DBB2A3EB1413083BC0F110069B1BC1F105
:10480000100A93FBFAF30133DBB29A424FEA141415
:1048100006910793DAD8604B0FCB0AAF87E80F00F9
:104820006B780133DB00DBB21C1B083CA61BEB786A
:1048300096FBFAF60136F6B2F41AE4B2A6420396F3
:1048400040F2A280069A04980995A5EB0901012B74
:1048500008BF02464B1B103310319B1A08910AFB0C
:10486000045101F108080293002307EB020B4646AE
:10487000C2F110021D469846029B9819B0F5A06F30
:10488000A4D831465846019206F08CF9384604F017
:104890001BFD019A00286ED008F101035FFA83F82E
:1048A0001DB9B8F1010F91D801259DF82800FF2806
:1048B0008CD0BDF82800BDF82AC040EA0C0080B2B8
:1048C000E8B9BDF82EC0BDF82C0040EA0C00BDF8D8
:1048D00030C040EA0C00BDF832C040EA0C00BDF820
:1048E00034C040EA0C00BDF836C080B250EA0C0378
:1048F0003FF46CAF18B9BCF5807F3FF467AF039B02
:104900000134E4B2A3425644B6D8099D049ADDE9C5
:104910000531012B18BF0A4607990492C81AC0B284
:10492000089B0AFB00FA0AF1080003449B1AB3F53E
:10493000A06F3FF64BAF049B174A05EB000AC3F18B
:10494000100403F118060FCA87E80F0051462246EB
:1049500059FA86F006F026F9049B2246F9185046CB
:1049600006F020F9EB78013B0120EB702FE70120E6
:104970000FB0BDE8F08F3846019204F019FE019A9D
:10498000002889D1054690E7A5EB09031033089369
:10499000BCE700BF2A27002060200020482000201C
:1049A000002919DBCB0717D44378ABB92DE9F041C7
:1049B000425A40F263439A4200EB010409D1194D77
:1049C0002B7B33B16A7BE3789A4202D1A3789A06B3
:1049D00004D50020BDE8F08100207047124AA78866
:1049E000D2F800800C20DE09FEF762FF0146404647
:1049F000FDF70CFE7FBAB5F84E10A578BFB2B942EC
:104A000094BF002101218E42C5F380131CBF45F0E5
:104A10004005A57086EA01023946BDE8F041FFF77E
:104A2000F1BD00BF501100206C0200202DE9F041C3
:104A30002A4F2B4E398882B001230DF107023046F0
:104A400005F090FE002841D09DF80730062B3DD0A0
:104A5000044606F1060814E013B9A378632B16D0B8
:104A60003988A31BC91A204600230DF1070289B219
:104A700005F078FE044648B39DF80730062B8046C3
:104A800024D0112B22D03A2B20D02B2BE4D1237809
:104A900088F8003065780135ED00684205F02EFE9B
:104AA000C0B139882839304689B205F051FE3A88BC
:104AB000A31B9A420EDDD21A6119204606F00CF9AA
:104AC00098F800308DF80730062BDAD1012002B0BB
:104AD000BDE8F081002002B0BDE8F0812A27002067
:104AE000482000202DE9F04FDFF8908298F80C3034
:104AF00089B053B39B4C228B48F2FE039A4224D0D8
:104B0000237EFF2B21D0FFF709FA054678B904F17F
:104B1000080004F0D9FB28B1934BE27993F80631F1
:104B20009A4217D009B0BDE8F04FFFF7DFBD04F19E
:104B30001807FFF77BFF3846FFF78CFB28B1394693
:104B4000002005F0DFF8064658BB0125284609B0CD
:104B5000BDE8F08F854E3288B2F59F6FF6D804F12C
:104B60002801283A04F1300006F0B6F8A37984F859
:104B70002830B8F84E3098F80D20C4F829505BBAA8
:104B800040F263416185E385A57184F82D200820FA
:104B900005F0B4FD31882839204689B205F0D8FDEA
:104BA000C0E708F11C01002005F0ACF801900028D6
:104BB00047D03946002005F0CBF8002841D0D6F880
:104BC00014A0BAF1000F00F0BC80019B534500F027
:104BD000C080674B03969B6902934FF000090F2535
:104BE0000DF11008029B514640469847DFF890E1CE
:104BF0002946C34670464246002312F8016B10F85E
:104C000001CFB44502D10133102BF6D19D420CDA0D
:104C1000DAF814A009F10103DBB2BAF1000F14D0E5
:104C2000019A524511D09946DCE700211BF8013B5F
:104C30001EF8012F9A4206D101311029F6D10D46F6
:104C4000E6E7002582E7CDB2E2E7C1F1100AC5F13F
:104C500018081AFB09885FFA88F918F007081FBFBF
:104C6000C8F108085FFA88F8C1445FFA89F9039E21
:104C70009B464B463D4A02931288D118B1F5A06F6E
:104C8000DFDC3C490888283021184844283A204471
:104C9000039106F021F803994A460846002106F0E0
:104CA00097F8A279029B84F828202B22A271B3F1F5
:104CB000080248BF03F1FF32D21084F829202C4AA1
:104CC00084F82BB0D2F818B02B4BCDF80890032203
:104CD00084F82A2005EB051284F82C204FEA0812EC
:104CE00084F82D20A9EB08040DF110084544C146B5
:104CF000DDF804801C4472699045A4EB0A040AD0D4
:104D000031464846D84752462946204605F04AFFD4
:104D10007669002EEFD1C84631464046DDF808904E
:104D2000D84798E80F0087E80F00484605F0E6FCF2
:104D30000E4B0C481988283989B2012505F008FD69
:104D400004E7D346082399460F254FF0010AD846B9
:104D500090E708234FF0000B99460F254FF0010A0A
:104D6000D84687E748200020201D00202A27002061
:104D700058CF00002827002070200020501100206C
:104D80005F20002008B50C4A137B43B10B4B0C4944
:104D90001B88527B2C3358185B5C9A4203D0BDE8C9
:104DA000084005F091BCC1788078FFF7FBFBBDE8B7
:104DB000084005F089BC00BF5011002028270020C2
:104DC000482000202DE9F0418EB02622002104A8C1
:104DD00005F0FEFF444A454C1188454B207B01F10C
:104DE0002C02D618D25C8DF8322010B1607B904234
:104DF00004D005F069FC0EB0BDE8F0813D4A15888D
:104E0000083300222C3D6D1ACDE90422CDE906229B
:104E10000FCBADB26F46032D87E80F00E9D9737849
:104E2000227E8DF835308DF833205B06F278ADF8B0
:104E3000302047D40424AC4250DA4FF0000820E080
:104E4000621CAA42D5DA3219507802300444AC42CE
:104E5000CFDC052B21D10328CBDD7318DA788DF850
:104E600034200732D210131D8342C2D104313144A1
:104E700008A8CDE90888CDE90A8805F093FEAC4280
:104E80002CDA335D2146002BDAD10134A542F6DA63
:104E900005F01AFC0EB0BDE8F081062BEFD1052815
:104EA000A7DD731813285B798DF83330E7DD063101
:104EB000731870589A685968DB680DF1100CACE8EB
:104EC0000F00DCE7132D94D904F11C001022311DD2
:104ED00005F036FE00288CD11424ACE704A938462E
:104EE000FFF73AFB85E700BF28270020501100207C
:104EF000482000202A27002008B5084B1B7B4BB117
:104F00000748017EA1F1FF01B1FA81F1083049099A
:104F1000FFF70EFBBDE8084005F0D6BB501100209E
:104F200048200020F0B59DB05C22002105A805F0C6
:104F30004FFF924A0D9240F60841914A914FADF8C9
:104F40002E1001211488ADF824108F4A1E2107F17C
:104F500008038DF831103C211688ADF832100FCBC4
:104F60002C3CA41BA4B201AD172C85E80F0003D87C
:104F700005F0AAFB1DB0F0BD06F12C03DE19DB5DC8
:104F80008DF82C30737837798DF82B30738896F83C
:104F900005C08DF82DC05BBA27F07F0CF168ADF825
:104FA00026308DF828C0B06832697369C7F3C20C27
:104FB00007F007078DF82A70182C05AF8DF829C067
:104FC0000FC718BF182100F0D480725C002ACFD020
:104FD0004B1CA342CCDA7318587802300F18A74242
:104FE000C6DC023A062AC3D80FF2040C5CF822F0A1
:104FF00003510000AD5000005D500000714F0000F3
:10500000714F0000714F00000D5000002028AFD1FB
:105010009A788DF86420802AAAD85A7A187A1031A2
:10502000120406EB010C42EA00627058D97A0A4376
:10503000997ADB788DF8653042EA0122DCF80C3091
:10504000DCF804101892DCF808200DF1500CACE8E4
:105050000F00A74280F28D803946B6E7102887D12D
:105060003144DA79887942EA0022ADF83420087AAE
:105070005A7A42EA0022ADF83620887B8A7AD97AB9
:1050800041EA0221DA7BADF8241042EA0022ADF8B1
:105090003220DA788DF82E201A798DF82F205A795F
:1050A0005B7B8DF830208DF83130D2E707287FF711
:1050B0005FAF721893F807E092F804C05A791204AF
:1050C00042EA0C6242EA0E0293F806E093F802C04C
:1050D000DB788DF84D3042EA0E2212920CF1070275
:1050E000D210D31D83428DF84CC0BFF641AFBCF146
:1050F000800F3FF63DAF083131440EA805F052FD58
:10510000A7E705287FF734AF1A7993F803E093F8FF
:1051100002C08DF868C0D10941EA4E018DF86910CE
:1051200059798DF86C10C2F3011102F00F028DF85D
:105130006A108DF86B20BCF1000F8AD0BCF1070F0C
:105140000DD0BCF1020F7FF413AF07287FF710AF2B
:105150009A79DB798DF86E208DF86F3079E7072822
:105160007FF706AF9A79DB7943EA0223ADF86E3018
:105170006FE705A92846FFF7E1F8F9E6000480008B
:105180002A2700204820002028270020F0B583B0DF
:1051900005460E46174603F0CFFE044610B12046E2
:1051A00003B0F0BD0C20FEF783FB22460146CDE99B
:1051B00000670123284603F055FE0446204603B04D
:1051C000F0BD00BF70B50446FFF7B0F8084B094DBD
:1051D000198809482C314B1900225A70944218BF83
:1051E00020464A550223BDE870409B2104F0D8BBFD
:1051F0002827002048200020701300202DE9F04FC0
:105200008FB08146FFF792F801F01AF818B1B9F1A2
:10521000000F00F02381934B934A1B88934E2C334D
:105220009C18717B995496F85230637001F008F81D
:10523000002866D0FF231A46A270E37096F8532028
:1052400096F85430B17B8A4D002A03F0070314BF4F
:105250006FF07F02002243EAC10313432371F27B04
:1052600062710023A371E3710FCDA060E160226140
:10527000636100F0E5FF002848D13378002B45D06A
:105280007178B778F578A376CA0142EA07122A4303
:105290000220227749080622072B2076E1766276E3
:1052A00000F0D680022B40F0D980B2796377F37991
:1052B000A277E37726234FF0270E4FF02908CDE998
:1052C0000B3E2823CDE909384FF02B0A2A23CDE9DC
:1052D000073A4FF02F0B2E23CDE9053B2D222C232F
:1052E000CDE9033225230293232320200193212398
:1052F0004FF0300A4FF0240B4FF022081A460D9061
:1053000027E0B6F84E301A0ADBB295E71E231F22BB
:10531000CDE90B3221212023CDE909312325222398
:10532000CDE9073527272623CDE905374FF0250C92
:105330002423CDE9033C1D2302931B231820019352
:1053400019234FF0280A4FF01C0B4FF01A081A4689
:105350000D904FF0040E04F800E00E20A054019AC6
:1053600096F810C0B18A777CB57CF38A4FF0000EB6
:1053700004F808E004F802C0029A04F80B70A5547F
:105380000B9A357E080AA0540C9A96F84000A15456
:10539000099A190AA1540A9AA354B368079A198C56
:1053A000738B0F0AA754089AA154039A04F802E0D9
:1053B000049AA554059A190AA154069AA35480B9CF
:1053C00000F03EFF20B92B4BB9F1000F08BF994602
:1053D000534601229B2148460FB0BDE8F04F04F030
:1053E000DFBA0D9AF16B96F84130019302F11C0679
:1053F000A3184FEA1168C1F3074702964FF0080B54
:10540000C1F30726C9B204F80AB01B4D98749E7503
:105410009E76D975D9760198029ED8741E2159744A
:1054200083F8148083F818805F755F760023A3519A
:1054300002F1200E02F1300A0FCD04EB0E0C44F8FD
:105440000E00CCF80410CCF80820CCF80C30B7E7EC
:10545000F388E3771B0A6077A3772BE70FB0BDE8EB
:10546000F08F00BF28270020482000205011002086
:105470006C110020701300207C1100202DE9F041F8
:10548000044600F053FF344E0746706C00F04CFAAF
:105490000546FEF74BFF337B002B5BD0726C002A76
:1054A00058D0002F56D0002D54D0B37B002B51D0B4
:1054B0002A4B727BB3F800C0294B0CF12C0C002155
:1054C0000CF803209C44002C96F858308CF80330DC
:1054D0000CBF0B4680238CF8013005238CF8043078
:1054E00012238CF8053080238CF802108CF80610FB
:1054F0008CF807307868BB6806F11C023E68FF68CC
:10550000CCF80C008CF81A108CF81B108CF81C10BE
:1055100003CACCF81030CCF81E001423A2F1080006
:105520000622CCF81470CCF808608CF81D408CF87A
:105530001820CCF822108CF81930AB68E968CCF848
:1055400026300222CCF82A102E23BDE8F0419B2100
:1055500004F026BABDE8F081501100202827002071
:105560004820002030B583B00D4614460190FEF768
:10557000DDFE0D4A0D4BB2F800C00D4A0198527B7A
:105580000CF12C0C00210CF803209C4403228CF815
:10559000011004239B218CF802508CF8034003B0C7
:1055A000BDE8304004F0FCB9282700204820002046
:1055B0005011002008B5074804F048F9064804F0E7
:1055C00045F9064804F042F9BDE80840044804F0F3
:1055D0003DB900BF3C020020300200202402002020
:1055E00018020020704700BF014B00221A7070475C
:1055F0005011002008B500F0A3F908B1808808BD5B
:105600004FF6FF7008BD00BFB0B138B504468588BD
:1056100000F096F968B183884FF6FE722B449342EE
:1056200007D8204600F08CF948B18088284480B221
:1056300038BD4FF6FF7038BD4FF6FF7070474FF61C
:10564000FF70F3E770B50546FFF7DEFF0B4B04462E
:10565000586CFFF7D9FF2B680646BF3423B9B44214
:10566000B4BF0020012070BDFBF71EFA2B68C01AE2
:10567000B0F5963FF3D9002070BD00BF5011002057
:1056800008B500F05DF928B18088B0F5007F8CBFC7
:105690000020012008BD00BF10B50446FFF7B4FF8D
:1056A000034620461C4600F04BF940B18388B3F511
:1056B000007F05D8B4F5004F8CBF0020012010BD3D
:1056C000002010BDF8B50D4678B30446FFF79CFFE7
:1056D0000646204600F034F938B38388B3F5007FDE
:1056E00023D8A5B32846FFF78FFF0746284600F0CA
:1056F00027F960B38388B3F5007F28D8B7F5004F4A
:1057000025D8B6F5004F20D81A4E736CA3422AD084
:105710009D4221D02046FFF777FF06462846FFF737
:1057200073FF864211D22046F8BD9DB12846FFF78F
:105730006BFF0446284600F003F958B18388B3F59F
:10574000007F07D8B4F5004F04D82846F8BDB6F559
:10575000004FE8D90020F8BD2046FFF773FF00286E
:10576000D8D02846F2E72846FFF76CFF0028DAD1A8
:10577000736CCDE75011002018B370B5144B8688B8
:10578000DD8A044600F0DCF8C0B183884FF6FE7273
:105790003344934212D8204600F0D2F8A0B180885A
:1057A000304482B2A3884FF6FF715819884228BF4F
:1057B0000846904238BF104680B270BD4FF6FF7267
:1057C000F0E74FF6FF7070474FF6FF70E8E700BF55
:1057D0005011002070B5054608460C4600F090F8C0
:1057E00098B10B4B9B685B6998470646284600F0CA
:1057F00087F838B1064B9B685B699847B04201D285
:10580000204670BD2C46204670BD4FF6FF76EDE772
:105810005011002008B50C4BD3F82821824204BF58
:105820000022C3F82821D3F80421824204BF0022B9
:10583000C3F80421054B01461868FCF789FFBDE851
:10584000084000F0C9BC00BF501100206C020020CD
:105850002DE9F843284D2B7B0026002B3DD0274F08
:1058600081463868FCF7A4FE0446002835D04FF680
:10587000FF780DE0B5F84C200A44424528BF424667
:10588000934215DD21463868FCF75EFE044620B3DE
:10589000AB685B692046002BF4D09847404503462F
:1058A000F0D0EA8A8242EDD8A98A20460029E1D1C7
:1058B000AB68DB6898470028E4D0B9F1000F0FD13E
:1058C000AB6821469B6930469847214606463868B2
:1058D000FCF73AFE04460028DAD13046BDE8F883EA
:1058E00021463868FCF798FFFCF7CCFAFCF7D0FAB1
:1058F0000028E5D1C6E700BF501100206C0200204F
:10590000024B01461868FCF781BE00BF6C02002004
:1059100020B1044B9B685B6903B118474FF6FF70D9
:10592000704700BF5011002008B5044B01461868AD
:10593000FCF772FFBDE8084003F01EBB6C020020BC
:1059400008B5044B01461868FCF766FFBDE808403F
:10595000FCF798BA6C02002008B5054B01461868A0
:10596000FCF75AFFFCF78EFABDE80840FCF790BA46
:105970006C02002070B5124D696C81421FD0114E2F
:1059800004463068FCF72CFF21463068FCF710FF16
:10599000696C3068FCF740FF03F0EEFA03F06AFB35
:1059A00003F04AFB21463068FCF736FF03F0E4FAC7
:1059B000002103F009FB01236C6485F85B3070BDA6
:1059C000501100206C020020F8B5144E0020FFF7A3
:1059D000D1FF3068FCF7ECFDD8B1114D044600272B
:1059E000D5F828313068A342D5F8043108BFC5F88E
:1059F00028712146A34208BFC5F80471FCF7A8FE30
:105A000000F0EAFB21463068FCF79EFD04460028C2
:105A1000E6D1BDE8F840FEF789BC00BF6C0200206B
:105A20005011002008B503F087FA03F07FFA034B0A
:105A300001461868BDE80840FCF7E8BD6C0200208C
:105A400038B5FEF76BFA20BB0546FFF701FF0446A9
:105A5000F8B1144B01461868FCF7DEFEFCF712FAA9
:105A6000FCF716FA68B9104DD5F82831A3B16B6C64
:105A7000A34209D00120FFF7EBFE38B104462046CF
:105A800038BD094BC3F82851204638BD6B6C002B3C
:105A9000FAD10024204638BDC5F8284100F0F6FAB6
:105AA000E5E700BF6C02002050110020024B0349C3
:105AB0001868FCF727BD00BF6C02002015580000D5
:105AC00030B5134D134995F8553080249C40A1FB07
:105AD000043483B0A3092B66FEF77EF9E4090E496E
